:03000000020100FA
:0C001B00758D4CD806B297B295C28E329B
:10010000C2D312810C12811CF8128114E8B40012BF
:10011000758910758C70758A00758D4C758B000211
:10012000015BB40112758911758C4C758A00758D4F
:100130004C758B0002015BB40212758912758C003C
:10014000758A00758D4C758B0002015B758913757E
:100150008C00758A00758D4C758B00D2AFD2ABD2F6
:100160008C1201C2F91201C2FA1201C2FB128114EF
:1001700012810C1201C2FC1201C2FD1201C2FE1258
:1001800001DEE8B4000D12020E7FC81201F812025F
:100190002380F3E8B4010D12020E7F141201F8124D
:1001A000023180F3B4020D12020E7FB41201F81274
:1001B000023F80F312020E7FB41201F812023F8058
:1001C000F30012811C75F00AA4C0E012811CD0F06B
:1001D00025F02275F00A84C425F0128104221281D0
:1001E0000CE91201D3743A128102EA1201D3743A73
:1001F000128102EB1201D3220503BB3C1005027BE6
:1002000000BA3C0905017A00B91802790022EBB561
:100210000610EAB5050CE9B504087850B297B29516
:10022000D28E22308DFD758C70C28DDFF61201DE0C
:1002300022308DFD758C4CC28DDFF61201DE2274EA
:1002400014C0E0308DFDC28DDFF97FB4D0E0D5E081
:09025000F01201DE220202550049
:00000001FF
